:020000041000EA
:101000004805002019100010000000009910001081
:1010100000040100000100001149124A124B00F0C7
:1010200018F8124880471249124A134B00F011F881
:101030001249134A134B00F00CF81349134A0020CD
:10104000521A02DD043A8850FCDC114880471148EE
:1010500080479B1A03DD043BC858D050FBDC704727
:10106000A8D100100C000020440100209D100010A9
:10107000E0D200104805002018280020B0F500102C
:10108000182800201828002018280020A82D00204B
:101090004DC00010DD900010FEE7000080B500AFED
:1010A00005F0B4FC05F0F8FCBD4680BD80B500AF8E
:1010B000124B1A68FF231B0213401A0A104B1A60C6
:1010C0000E4B1B68FF221A400E4B1A600C4B1B681C
:1010D000002B0ED00A4B1B681A020A4B1B68D31850
:1010E0000948191C01F02AFA031C5A00074B1A6020
:1010F00002E0064B064A1A60BD4680BD000301406F
:10110000182800201C280020000024F4FC3F0020A8
:101110000048E80180B582B000AF7860BD4602B0FB
:1011200080BDC04690B585B000AFF8607A600B23F3
:10113000FB180A1C1A700B23FB181B789B08DBB2E8
:10114000181C0B23FB181B789B08DBB21A1CFB68CE
:1011500004329200D3580B22BA18127803210A40A5
:10116000D200111CF8228A40D2431A40111CFB689D
:10117000021D9200D150FB685B6F0B22BA181278E7
:101180005200111C03228A40D2431A40FB685A675E
:101190000B23FB181B78DB08DBB2181C0B23FB1896
:1011A0001B78DB08DBB21A1CFB6810329200D358A4
:1011B0000B22BA18127807210A409200111C04224F
:1011C0008A40D2431A40111CFB68021C1032920064
:1011D000D1500B23FB181B78DB08DBB2181C0B2348
:1011E000FB181B78DB08DBB21A1CFB68103292007C
:1011F000D2587B685B781C1C0B23FB181B780721DB
:101200000B409B009C40231C1A43111CFB68021CD2
:1012100010329200D150FB68204A93420BD1FB68F8
:101220001B6E0B22BA181278012191400A1CD2437E
:101230001A40FB681A667B681B78DBB25BB2002B36
:1012400007DA7B685A680B23FB181B789A40FB6807
:101250005A600B23FB181B789B08DBB2181C0B236E
:10126000FB181B789B08DBB21A1CFB680432920047
:10127000D2587B681B781C1C0B23FB181B7803219E
:101280000B40DB009C40231C1A43111CFB68021D11
:101290009200D150BD4605B090BDC046000204404A
:1012A00080B500AF024BC3225A62BD4680BDC04626
:1012B0000000014080B500AF054BC0225A62C04615
:1012C000034B5B6A04221340FAD1BD4680BDC04681
:1012D0000000014080B582B000AF7860FFF7EAFF00
:1012E0000C4A0C4B1B680C4919407B689B681943DE
:1012F0007B685B680B431360FFF7D2FF7B685B780A
:101300001A1C7B681B78101C191C00F039F8BD46AC
:1013100002B080BD00030140FFFFF0FF80B582B046
:1013200000AF021CBB1D1A80FFF7C4FF094B094A1E
:101330001169BA1D12880A431A61C046054B1A6822
:101340008023DB051340F9D1FFF7AAFFBD4602B0A9
:1013500080BDC0460003014080B582B000AF021CD2
:10136000BB1D1A80054B9B68BA1D128813405A1E7C
:101370009341DBB2181CBD4602B080BD00030140A2
:1013800080B584B000AF78603960FFF793FF214BE0
:101390001A68FF231B0213401B0AFB601D4B1D4AEA
:1013A00012681D4911403A680A431C490A431A60F1
:1013B000C046184B1A688023DB051340F9D1FA6840
:1013C0007B689A4206D8FA687B68101C191C00F0EA
:1013D00053F805E0FA687B68101C191C00F022F82D
:1013E0000C4B0C4A12680E4911407A6812020A43EB
:1013F0000A490A431A60C046064B1A688023DB0577
:101400001340F9D1FFF74CFFFFF750FEBD4604B083
:1014100080BDC0460003014000FF0FC00000F03F48
:10142000FF000FC080B582B000AF7860396014E073
:101430007B689B087B600D4B0C4A12680C4911407D
:101440007A6812020A430B490A431A60C046074BE6
:101450001A688023DB051340F9D13B689A007B684A
:101460009A42E5D3BD4602B080BDC04600030140AC
:10147000FF000FC00000F03F80B582B000AF786081
:10148000396019E07B68002B01D101237B607B6808
:101490009B007B600C4B0C4A12680C4911407A6827
:1014A00012020A430A490A431A60C046064B1A68E8
:1014B0008023DB051340F9D17B689A003B689A4290
:1014C000E0D3BD4602B080BD00030140FF000FC065
:1014D0000000F03F80B500AF024B1B68181CBD46F2
:1014E00080BDC046FC3F002080B582B000AF786070
:1014F0007B6880225200DA60BD4602B080BDC046E3
:1015000080B582B000AF78607B68044A934202D114
:101510000420FFF703FFBD4602B080BD0000044871
:1015200080B582B000AF78607B68181CFFF7E8FFD9
:10153000BD4602B080BDC04680B584B000AF7860C3
:101540000A1CFB1C1A707B68181CFFF7E9FF7B68FC
:10155000181CFFF7C9FF7B681B68FB60FB68074A24
:101560001340FB60FB1C1B789B03FA681343FB6072
:101570007B68FA681A60BD4604B080BDFF3FFFFF7C
:1015800080B584B000AF786039607B681B68FB6011
:101590003B681B0CDA43FB681340FB603B681B0491
:1015A0001B0CFA681343FB607B68FA681A60BD463F
:1015B00004B080BD80B582B000AF786039603B6810
:1015C0001A687B685A613B685B799B06DB0FDBB26C
:1015D0001A057B685A603B681B791B071B0FDBB23F
:1015E0001A1C7B685A623B685B791B071B0FDBB2D6
:1015F0001A1C7B681A623B685B79DB06DB0FDBB287
:101600001A1C7B689A613B681B791B061B0FDBB2B7
:101610001A1C7B68DA62BD4602B080BD80B584B01A
:1016200000AF7860081C111CFB1C021C1A70BB1C4C
:101630000A1C1A707B685B68BB60BB68032293431B
:10164000BB60FB1C1B78BA681343BB607B68BA683D
:101650005A607B685B69FB60BB1C1B78012B05D162
:10166000FB688022D2001343FB6003E0FB68044A5E
:101670001340FB607B68FA685A61BD4604B080BDC8
:10168000FFFBFFFF80B584B000AF7860081C111C21
:10169000FB1C021C1A70BB1C0A1C1A707B685B685E
:1016A000FB60FB680C229343FB60FB1C1B789B00D8
:1016B000FA681343FB607B68FA685A607B685B6971
:1016C000BB60BB68074A1340BB60BB1C1B781B0296
:1016D000BA681343BB607B68BA685A61BD4604B000
:1016E00080BDC046FFFCFFFF80B584B000AF7860CE
:1016F0000A1CFB1C1A707B685B68FB60FB68074A6E
:101700001340FB60FB1C1B781B03FA681343FB6050
:101710007B68FA685A60BD4604B080BDFFCFFFFF0A
:1017200090B585B000AF78600C1C101C191CFB1C18
:10173000221C1A70BB1C021C1A707B1C0A1C1A701B
:101740007B685B69FB607B685B68BB60BB68174A52
:101750001340BB60FB1C1B789B04BA681343BB603F
:101760007B68BA685A60BB1C1B78012B05D1FB68EB
:10177000802252041343FB6003E0FB680C4A1340D1
:10178000FB607B1C1B78002B05D0FB6880221204B9
:101790001343FB6003E0FB68064A1340FB607B6871
:1017A000FA685A61BD4605B090BDC046FFFFF3FF21
:1017B000FFFFFFFEFFFF7FFF80B584B000AF7860C2
:1017C0000A1CFB1C1A707B685B68FB60FB68074A9D
:1017D0001340FB60FB1C1B789B03FA681343FB6000
:1017E0007B68FA685A60BD4604B080BDFF3FFFFFCA
:1017F00080B584B000AF78600A1CFB1C1A707B684F
:101800005B68FB60FB68074A1340FB60FB1C1B78AE
:101810001B02FA681343FB607B68FA685A60BD4696
:1018200004B080BDFFFCFFFF80B584B000AF7860DE
:101830000A1CFB1C1A707B685B68FB60FB68074A2C
:101840001340FB60FB1C1B789B02FA681343FB6090
:101850007B68FA685A60BD4604B080BDFFF3FFFFA5
:1018600080B584B000AF78607B685B68FB60FB6824
:10187000064A1340FB60FB68802252021343FB6060
:101880007B68FA685A60BD4604B080BDFFFFFEFF6A
:1018900080B584B000AF7860081C111CFB1C021CD2
:1018A0001A70BB1C0A1C1A707B685B68BB60BB6843
:1018B000174A1340BB60BB68802292021343BB608F
:1018C0007B68BA685A607B685B69FB60BB1C1B78ED
:1018D000002B05D0FB68802292031343FB6003E0DA
:1018E000FB680C4A1340FB60FB1C1B78012B05D1E5
:1018F000FB688022D2031343FB6003E0FB68064AC7
:101900001340FB607B68FA685A61BD4604B080BD35
:10191000FFFFFDFFFFFFDFFFFFFFBFFF80B586B0CA
:1019200000AFF860B9607A60FB681B687B617B6917
:101930002A4A13407B61BB685B789B047A69134336
:101940007B617B69264A13407B617B685B781B0562
:101950007A6913437B617B69224A13407B61BB68D0
:101960009B78DB057A6913437B617B691E4A1340D0
:101970007B617B689B781B067A6913437B617B697B
:101980001A4A13407B61BB68DB78DB067A69134334
:101990007B617B69164A13407B617B68DB785B0760
:1019A0007A6913437B617B69F02293437B61BB6857
:1019B0001B781B017A6913437B617B690D4A1340D5
:1019C0007B617B681B781B027A6913437B61FB6830
:1019D0007A691A60BD4606B080BDC046FFFFF3FFBE
:1019E000FFFFCFFFFFFF7FFFFFFFFFFEFFFFFFE7D0
:1019F000FFFFFF9FFFF0FFFF80B588B000AFF860EA
:101A00007A600B23FB180A1C1A701F23FB180B2289
:101A1000BA181278013A1A70FB681B68BB611F2361
:101A2000FB181B78DB18DAB21723FB1810321A7078
:101A30001723FB181B7803229A40131CDA43BB6957
:101A40001340BB617B685B781A1C1723FB181B785B
:101A50009A40131CBA691343BB611723FB181F225A
:101A6000BA18127816321A701723FB181B78012245
:101A70009A40131CDA43BB691340BB617B689B78B7
:101A80001A1C1723FB181B789A40131CBA691343BE
:101A9000BB611F23FB181B78DB18DAB21723FB1876
:101AA00019321A701723FB181B7803229A40131C53
:101AB000DA43BB691340BB617B68DB781A1C1723D0
:101AC000FB181B789A40131CBA691343BB61172398
:101AD000FB181F22BA18127892001A701723FB18ED
:101AE0001B780F229A40131CDA43BB691340BB6179
:101AF0007B681B781A1C1723FB181B789A40131C51
:101B0000BA691343BB61FB68BA691A60BD4608B085
:101B100080BDC04680B584B000AF78600A1CFB1C55
:101B20001A707B689B6AFB60FB68094A1340FB6084
:101B3000FB1C1B781B02FA681343FB607B68FA6886
:101B40009A62FB1C1A787B685A62BD4604B080BD5D
:101B5000FFF0FFFF80B586B000AF7860081C111C55
:101B6000FB1C021C1A70BB1C0A1C1A70FB1C1B7885
:101B70000B2B20D89A00204BD3181B689F460323B9
:101B80003B6100237B611BE00C233B6102237B61F3
:101B900016E0C0239B003B6108237B6110E0C0235B
:101BA0001B013B610A237B610AE0C0239B013B616F
:101BB0000C237B6104E000233B6100237B61C04672
:101BC0003B69002B14D07B68A8229B58FB603B69C3
:101BD000DA43FB681340FB60BB1C1A787B699A40B0
:101BE000131CFA681343FB607B68A821FA685A50FB
:101BF000BD4606B080BDC04698C0001080B582B01A
:101C000000AF78607B6880225200DA60BD4602B087
:101C100080BDC04680B582B000AF78607B6801228D
:101C20001A61BD4602B080BD80B582B000AF786059
:101C30007A68A023DB059A4202D10220FFF76EFBEF
:101C4000BD4602B080BDC04680B582B000AF7860AE
:101C50007B68181CFFF7E8FFBD4602B080BDC04698
:101C600080B584B000AF78600A1CFB1C1A707B68DA
:101C7000181CFFF7E9FF7B68181CFFF7BFFF7B68A4
:101C80001B68FB60FB68074A1340FB60FB1C1B786A
:101C90009B03FA681343FB607B68FA681A60BD46D1
:101CA00004B080BDFF3FFFFF80B582B000AF786019
:101CB00039607B68181CFFF7ADFF3B681A687B68CA
:101CC0005A613B685B7BDB06DB0FDBB21A057B6886
:101CD0005A603B681B7B1B071B0FDBB21A1C7B681F
:101CE0005A623B681B7B1B061B0FDBB21A1C7B680E
:101CF000DA623B685B7B1B071B0FDBB21A1C7B683D
:101D00001A623B685A687B689A613B689B68142238
:101D10005A407B689A64BD4602B080BD80B584B0ED
:101D200000AF786039607B681B68FB603B681B0C08
:101D3000DA43FB681340FB603B681B041B0CFA682A
:101D40001343FB607B68FA681A60BD4604B080BD2F
:101D500080B584B000AF7860081C111CFB1C021C0D
:101D60001A70BB1C0A1C1A707B685B68BB60BB687E
:101D700003229343BB60FB1C1B78BA681343BB6010
:101D80007B68BA685A607B685B69FB60BB1C1B7828
:101D9000012B05D1FB688022D2001343FB6003E0D6
:101DA000FB68044A1340FB607B68FA685A61BD46D1
:101DB00004B080BDFFFBFFFF80B584B000AF78604A
:101DC000081C111CFB1C021C1A70BB1C0A1C1A707C
:101DD0007B685B68FB60FB680C229343FB60FB1C29
:101DE0001B789B00FA681343FB607B68FA685A60B3
:101DF0007B685B69BB60BB68074A1340BB60BB1C68
:101E00001B781B02BA681343BB607B68BA685A61CF
:101E1000BD4604B080BDC046FFFCFFFF80B584B066
:101E200000AF78600A1CFB1C1A707B685B68FB6063
:101E3000FB68074A1340FB60FB1C1B781B03FA6816
:101E40001343FB607B68FA685A60BD4604B080BDEE
:101E5000FFCFFFFF80B584B000AF78600A1CFB1C89
:101E60001A707B685B69FB60FB6880229343FB60B0
:101E7000FB1C1B78DB01FA681343FB607B68FA6884
:101E80005A61BD4604B080BD90B585B000AF7860A2
:101E90000C1C101C191CFB1C221C1A70BB1C021CE5
:101EA0001A707B1C0A1C1A707B685B68BB60BB687D
:101EB0001D4A1340BB60FB1C1B789B04BA6813438C
:101EC000BB607B68BA685A607B685B69FB60BB1C5F
:101ED0001B78012B05D1FB68802252041343FB6061
:101EE00003E0FB68114A1340FB602023FB181B78BA
:101EF000002B05D0FB68802212041343FB6003E033
:101F0000FB680B4A1340FB60FB680A4A1340FB6006
:101F10007B1C1B78DB06FA681343FB607B68FA685E
:101F20005A61BD4605B090BDFFFFF3FFFFFFFFFE06
:101F3000FFFF7FFFFFFFFFE780B584B000AF786051
:101F40000A1CFB1C1A707B685B68FB60FB68074A15
:101F50001340FB60FB1C1B789B03FA681343FB6078
:101F60007B68FA685A60BD4604B080BDFF3FFFFF42
:101F700080B584B000AF78600A1CFB1C1A707B68C7
:101F80005B68FB60FB68074A1340FB60FB1C1B7827
:101F90001B02FA681343FB607B68FA685A60BD460F
:101FA00004B080BDFFFCFFFF80B584B000AF786057
:101FB0000A1CFB1C1A707B685B68FB60FB68074AA5
:101FC0001340FB60FB1C1B789B02FA681343FB6009
:101FD0007B68FA685A60BD4604B080BDFFF3FFFF1E
:101FE00080B584B000AF78607B685B68FB60FB689D
:101FF000064A1340FB60FB68802252021343FB60D9
:102000007B68FA685A60BD4604B080BDFFFFFEFFE2
:1020100080B584B000AF7860081C111CFB1C021C4A
:102020001A70BB1C0A1C1A707B685B68BB60BB68BB
:10203000174A1340BB60BB68802292021343BB6007
:102040007B68BA685A607B685B69FB60BB1C1B7865
:10205000002B05D0FB68802292031343FB6003E052
:10206000FB680C4A1340FB60FB1C1B78012B05D15D
:10207000FB688022D2031343FB6003E0FB68064A3F
:102080001340FB607B68FA685A61BD4604B080BDAE
:10209000FFFFFDFFFFFFDFFFFFFFBFFF80B586B043
:1020A00000AFF860B9607A60FB681B687B617B6990
:1020B0002A4A13407B61BB685B789B047A691343AF
:1020C0007B617B69264A13407B617B685B781B05DB
:1020D0007A6913437B617B69224A13407B61BB6849
:1020E0009B78DB057A6913437B617B691E4A134049
:1020F0007B617B689B781B067A6913437B617B69F4
:102100001A4A13407B61BB68DB78DB067A691343AC
:102110007B617B69164A13407B617B68DB785B07D8
:102120007A6913437B617B69F02293437B61BB68CF
:102130001B781B017A6913437B617B690D4A13404D
:102140007B617B681B781B027A6913437B61FB68A8
:102150007A691A60BD4606B080BDC046FFFFF3FF36
:10216000FFFFCFFFFFFF7FFFFFFFFFFEFFFFFFE748
:10217000FFFFFF9FFFF0FFFF80B588B000AFF86062
:102180007A600B23FB180A1C1A701F23FB180B2202
:10219000BA181278013A1A70FB681B68BB611F23DA
:1021A000FB181B78DB18DAB21723FB1810321A70F1
:1021B0001723FB181B7803229A40131CDA43BB69D0
:1021C0001340BB617B685B781A1C1723FB181B78D4
:1021D0009A40131CBA691343BB611723FB181F22D3
:1021E000BA18127816321A701723FB181B780122BE
:1021F0009A40131CDA43BB691340BB617B689B7830
:102200001A1C1723FB181B789A40131CBA69134336
:10221000BB611F23FB181B78DB18DAB21723FB18EE
:1022200019321A701723FB181B7803229A40131CCB
:10223000DA43BB691340BB617B68DB781A1C172348
:10224000FB181B789A40131CBA691343BB61172310
:10225000FB181F22BA18127892001A701723FB1865
:102260001B780F229A40131CDA43BB691340BB61F1
:102270007B681B781A1C1723FB181B789A40131CC9
:10228000BA691343BB61FB68BA691A60BD4608B0FE
:1022900080BDC04680B582B000AF78600A1CBB1C10
:1022A0001A80BB1C1A887B685A63BD4602B080BD89
:1022B00080B582B000AF7860081C111CFB1C021CAA
:1022C0001A703B1C0A1C1A80FB1C1B78002B04D1C3
:1022D0003B1C1A887B68DA6303E03B1C1A887B6826
:1022E0005A64BD4602B080BD80B586B000AF78604C
:1022F000081C111CFB1C021C1A70BB1C0A1C1A7047
:10230000FB1C1B780B2B25D89A00224BD3181B687B
:102310009F4603237B6100233B6120E00C237B610C
:1023200002233B611BE030237B6104233B6116E009
:10233000C0239B007B6108233B6110E0C0231B018D
:102340007B610A233B610AE0C0239B017B610C2374
:102350003B6104E000237B6100233B61C0467B6955
:10236000002B14D07B68A8229B58FB607B69DA4362
:10237000FB681340FB60BB1C1A783B699A40131C36
:10238000FA681343FB607B68A821FA685A50BD467F
:1023900006B080BDC8C0001080B582B000AF7860C4
:1023A00039603B685A687B681A653B689A687B6845
:1023B0005A653B681A687B68DA64BD4602B080BD26
:1023C00080B584B000AFF8607A600B23FB180A1C5C
:1023D0001A70FB68181CFEF79DFEFB681B680B2239
:1023E000BA1812789200111C0F228A40D2431A4068
:1023F0007B681B680B217918097889008B401A4388
:10240000FB681A600B23FB181A787B685968FB6815
:1024100004329200D150BD4604B080BD90B583B067
:1024200000AF7860081C111CFB1C021C1A70BB1C3E
:102430000A1C1A70FB1C1A78BB1C1B7803210B406A
:10244000D9B27B6808329200032001400901D058BC
:102450003024A0430143D150BD4603B090BDC046D7
:1024600090B583B000AF7860081C111CFB1C021CE7
:102470001A70BB1C0A1C1A70FB1C1B789B08DBB271
:10248000181CFB1C1B789B08DBB21A1C7B680432EF
:102490009200D358FA1C127803210A40D200111C72
:1024A000F8228A40D2431A40111C7B68021D920018
:1024B000D150FB1C1B789B08DBB21C1CFB1C1B783F
:1024C0009B08DBB21A1C7B6804329200D258BB1CFA
:1024D0001B78F91C097803200140C9008B401A437E
:1024E000111C7B68221D9200D150BD4603B090BDE7
:1024F00080B582B000AF7860081C111CFB1C021C68
:102500001A70BB1C0A1C1A707B685B6FFA1C12786D
:102510005200111C03228A40D2431A407B685A673A
:102520007B685A6FBB1C1B78F91C097849008B40EB
:102530001A437B685A67BD4602B080BD80B588B03B
:1025400000AF78603960EFF310837B617B693B619A
:1025500072B63B69FB610C4B04225A630A4B7A68E2
:102560001A62094B3A685A62074B9B6ABB61FB6966
:10257000FB60FB68BB60BB6883F31088BB69181CF9
:10258000BD4608B080BDC0460000034080B588B09D
:1025900000AF78603960EFF310837B617B693B614A
:1025A00072B63B69FB610C4B00225A630A4B7A6896
:1025B0001A62094B3A685A62074B9B6ABB61FB6916
:1025C000FB60FB68BB60BB6883F31088BB69181CA9
:1025D000BD4608B080BDC04600000340F0B58DB0D8
:1025E00000AF78603960EFF310827A617A693A61FE
:1025F00072B63A69FA62154A04215163134A79683E
:102600001162124A39685162104AD26A3A62002253
:102610007A620E4A926ABA610022FA61FA6AFA6034
:10262000FA68BA60BA6882F310883A6A1400002225
:10263000131CBA691A43151CFA692243161C2B1C79
:10264000341C181C211CBD460DB0F0BD0000034019
:1026500080B582B000AF786039607B68DA6C3B6827
:102660001A437B68DA64BD4602B080BD80B584B091
:1026700000AFF860B960FB1D1A70FB68181C00F011
:1026800089F8BB685B79002B19D1FB1D1B78002BE7
:1026900015D0BB681B79002B09D0BB681B681A1CBE
:1026A000FB68181C111C022200F016F907E0BB6839
:1026B0001B68FA68101C191C022200F093F8FB68D2
:1026C0000E4A5A63FB68A222D2009A63BB685B7908
:1026D000002B07D1BB689B790B221343DBB21A1C7A
:1026E000FB68DA63FB6801225242DA64BB681B892B
:1026F0001A1CFB681A64BD4604B080BD02013F0786
:1027000080B582B000AF786039607B68DB6B064AC9
:102710001A407B68DA637B68DA6B3B681A437B6834
:10272000DA63BD4602B080BDFFFF00FF80B582B016
:1027300000AF78607B68181C0121FFF789FF7B6878
:10274000DB6B034A1A407B68DA63BD4602B080BD8A
:10275000FFFF00FF80B584B000AF78607A68862301
:102760005B00D258E023DB04134005D17B685A6D2F
:102770000E23FB181A8006E07A688E235B00D2587D
:102780000E23FB181A800E23FB181B88181CBD464D
:1027900004B080BD80B582B000AF78607A689023C5
:1027A000DB059A4203D07B680C4A934203D10C4B61
:1027B000181C00F097F97B680322DA60C0467B683A
:1027C000DB6801221340FAD07B681B6C0F22934315
:1027D0001A1C7B681A64BD4602B080BD0002004826
:1027E0000800004880B58EB000AFF860B9607A602C
:1027F000BB68632B60D97B68002B5DD0FEF76AFE57
:10280000031C181C6421FFF799FE031C3B62BB6884
:10281000181C6421FFF792FE031CBB608023DB00C1
:10282000FB620123BB622A4B7B628023DB003B639C
:1028300025E03B6A3A6B5A43111CBB687A685343E4
:10284000081C191CFFF77AFE031CFB61FB699B0A3D
:10285000BB61FB699B059B0D7B61BA698023DB0033
:102860009A4209D87A697B6A9A4205D27B697B626F
:10287000BB69BB623B6BFB623B6B013B3B633B6BEE
:10288000002BD6D1FB6A013B802212021A43FB685F
:102890001A61FB685B690F4A1A407B68013B9B0227
:1028A0001A43BB6A013B1B041A43FB685A61372376
:1028B000FB1800221A7003E03723FB1801221A705C
:1028C0003723FB181B78181CBD460EB080BDC046D0
:1028D000FF030000EF8000FC80B58CB000AFF86013
:1028E000B9607A60FEF7F6FD031C3B62BB687A684C
:1028F0005343FB610123FB623A6AFB699A4262DD42
:10290000386AF969FFF742FE031CBB620FE0FB6AFD
:102910000133FB62BB687A6853431A1CFB6A53435A
:10292000FB61386AF969FFF731FE031CBB62BB6AC1
:102930002A4A9342EBD8396A7B68BA6A5343FA6AE7
:102940005343081C191CFFF7F9FD031CBB61396ACE
:10295000BB6A01337A685343FA6A5343081C191C53
:10296000FFF7ECFD031C7B61BA687B69D31AD917AA
:102970005A184A40B968BB69CB1AD9175B184B4043
:102980009A4202DABB6A0133BB62BB6A8022D20080
:10299000D31ABB62BB6A8022D2011A43FB681A6158
:1029A000FB685B690E4A1A407B68013B9B021A4335
:1029B000FB6A013B1B041A43FB685A612723FB187F
:1029C00000221A7003E02723FB1801221A70272324
:1029D000FB181B78181CBD460CB080BDFE03000020
:1029E000EF8000FC80B584B000AFF860B9603B6058
:1029F000FB1D1A70FA6884235B00D3580E4A1340FB
:102A0000191CFA6884235B00D150FA6884235B00A8
:102A1000D3580A4A1A403B681902BB681943FB1D88
:102A20001B781B060B431A43111CFA6884235B00B6
:102A3000D150BD4604B080BDFFFFFFF8C0C0FFF815
:102A400080B584B000AFF860B9603B60FB1D1A70C0
:102A5000FA6886235B00D358104A1340191CFA68A1
:102A600086235B00D150FA6886235B00D3580C4A5A
:102A70001A403B681902BB681943FB1D1B781B06F3
:102A80000B431343802252051A43111CFA68862314
:102A90005B00D150BD4604B080BDC046FFFFFFF8CB
:102AA000C0C0FFEF80B584B000AFF8607A600B2340
:102AB000FB180A1C1A70FB689B690B22BA18127863
:102AC000072191400A1CD2431A400B23FB181B78A4
:102AD000796899400B1C1A43FB689A61BD4604B0A3
:102AE00080BDC04680B582B000AF78607B68074A81
:102AF000934208D10820FEF711FCC0460820FEF7DB
:102B00002BFC031EFAD1BD4602B080BD0800004870
:102B100080B584B000AF786039603B1C1B785B07E0
:102B20005B0FDBB21A1CBB1C1B889B059B0D9BB269
:102B30001B041343FB607A68F8235B00F968D150EB
:102B4000FB1C1B78DB06DB0FDBB21A07FB1C1B78B8
:102B50001B079B0FDBB29B061A43FB1C1B789B06D3
:102B6000DB0FDBB25B071343FB60FB1C1B785B06D0
:102B7000DB0FDBB29B07FA681343FB607A68F8232C
:102B80005B00D258FB681343802212061A43111CC3
:102B90007A68F8235B00D150BD4604B080BDC046C2
:102BA00080B582B000AF78607B6884229B58802219
:102BB000D2041A437B6884215A50BD4602B080BDBE
:102BC00080B582B000AF78607B6884229B58044A4D
:102BD0001A407B6884215A50BD4602B080BDC04671
:102BE000FFFFFFFB80B500AF034BFF221A600120FF
:102BF000FEF794FBBD4680BD0005014080B582B064
:102C000000AF78603960FFF7EDFF3B685A697B6879
:102C10001A603B685B68802212021A437B6880213D
:102C20005A503B689A687B68A0215A503B68DA6822
:102C30007B68A4215A503B6819697A68A0239B00DD
:102C4000D1503B681A687B68B8215A50BD4602B023
:102C500080BDC04680B584B000AFF860B9603B600D
:102C6000FB1D1A70FB1D1B78002B09D1BB680A4A9B
:102C70001340191CFB683A6828329200D15008E0D2
:102C8000BB68064A1340191CFB683A682832920058
:102C9000D150BD4604B080BD1F07000000001F07D3
:102CA00080B584B000AF78607B6880229B5880221A
:102CB00012061A437B6880215A500F23FB1800220A
:102CC0001A7026E00F23FB181A78164B9200D3587F
:102CD000BB60BB6880229A58C0239B02134011D06E
:102CE00000E0C046BB6880229A5880239B051340B1
:102CF000F7D000E0C046BB6880229A5880235B056D
:102D00001340F7D10F23FB181A780F23FB18013259
:102D10001A700F23FB181B78012BD3D9BD4604B0C2
:102D200080BDC046F8C0001080B584B000AF7860A8
:102D30000A1CFB1C1A70FB1C1B78032B04D9FB1C00
:102D40001B78043BFB6002E0FB1C1B78FB607A688D
:102D5000A0235B00D3580F229343191C7A68A02349
:102D60005B00D1507A68A0235B00D258FB681A43FD
:102D7000111C7A68A0235B00D150BD4604B080BD11
:102D800080B582B000AF786039607A683B685B6874
:102D9000101C191C0022002300F030F87A683B68F0
:102DA0005B68101C191C0122002300F027F87A68C8
:102DB0003B689B68101C191C0022012300F01EF8C0
:102DC0007A683B689B68101C191C0122012300F0E3
:102DD00015F83B681A697B6880215A503B68DA68AD
:102DE0007B68B8215A507A683B681B68101C191C14
:102DF000FFF78EFEBD4602B080BDC04680B58CB0E8
:102E000000AFF860B9603B60FB1D1A70FB1D1B78BA
:102E1000002B19D10823FB62E023DB007B62002337
:102E2000BB621F233B620823FB181B78DB06DB0E0B
:102E3000DBB2FB610923FB181B785B075B0FDAB27F
:102E40001B23FB181A7019E01823FB62E023DB0434
:102E50007B621023BB62F8235B033B620A23FB18EF
:102E60001B78DB06DB0EDBB2FB610B23FB181B7848
:102E70005B075B0FDAB21B23FB181A70FB683A681A
:102E800028329200D3587B617B6ADA437B69134016
:102E90007B611B23FB181A78FB6A9A40131C7A6922
:102EA00013437B613B6ADA437B6913407B61BB6AF6
:102EB000FA699A40131C7A6913437B61FB683A688C
:102EC000283292007969D150BD460CB080BDC04611
:102ED00080B584B000AF78600A1CFB1C1A707B6858
:102EE00080229B58FB60FB6803229343FB60FB1C22
:102EF0001B78FA681343FB607B688021FA685A509C
:102F0000BD4604B080BDC04680B582B000AF7860D9
:102F10000A1CFB1C1A70FB1C1B78002B08D17B6859
:102F200080229B5801221A437B6880215A500BE073
:102F3000FB1C1B78012B07D17B6884229B58012244
:102F40001A437B6884215A50BD4602B080BDC046FA
:102F500080B586B000AF786039601723FB18002277
:102F60001A700FE01723FB181A784A4B9200D358B7
:102F7000181CFFF725FE1723FB181A781723FB18D8
:102F800001321A701723FB181B78012BEAD9002392
:102F90003B613B681B7803221340DBB2002B02D05D
:102FA00080231B013B611723FB1800221A7029E0C4
:102FB0001723FB181A78374B9200D35884229B585A
:102FC000FB60FB68344A1340FB603B681B781B07BF
:102FD0009B0FDBB21B02FA681343FB60FA683B6984
:102FE0001343FB601723FB181A782A4B9200D3581F
:102FF0008421FA685A501723FB181A781723FB18F4
:1030000001321A701723FB181B78012BD0D93B68AB
:103010005B68224A1A43111C7A6880239B00D150B6
:103020003B689B6801221A43111C7A6881239B002C
:10303000D1503B681B7803221340DBB2022B0BD12B
:103040007A6881239B00D358802252021A43111CB4
:103050007A6881239B00D1501723FB1800221A7035
:103060000FE01723FB181A780A4B9200D358181C4C
:10307000FFF796FD1723FB181A781723FB18013268
:103080001A701723FB181B78012BEAD9BD4606B02E
:1030900080BDC046F8C00010FFFCFFFF008080002C
:1030A00080B588B000AFF860B9607A607B681B7B40
:1030B000BB61FB6888229B587B61BB6801229A40F8
:1030C000131CDA437B6913407B61BB68BA699A4081
:1030D000131C7A6913437B61FB6888217A695A5013
:1030E0007B685B7B5BB2002B2ADB0023FB61BB6848
:1030F000012B0AD10823FB61FB68B0229B581E4AB2
:103100001A40FB68B0215A500DE0BB68002B0AD171
:103110000023FB61FB68B0229B581F2293431A1CBB
:10312000FB68B0215A50FB68B0229B587A68527BEA
:1031300051B2FA6991400A1C1A43FB68B0215A50F7
:10314000FB68C8229A587B685B681A43FB68C821F1
:103150005A50FB68D0229A587B689B681A43FB68D8
:10316000D0215A507B681968FB68BA688032920097
:10317000D150BD4608B080BDFFE0FFFF80B500AF75
:10318000BD4680BD80B582B000AF021CFB1D1A7029
:10319000FB1D1B787F2B09D8064BFA1D1278111CDA
:1031A0001F220A40012191400A1C1A60BD4602B04C
:1031B00080BDC04600E100E080B582B000AF021CD7
:1031C000FB1D1A70FB1D1B787F2B0ED80849FB1DB9
:1031D0001B781A1C1F23134001229A40131C8022C3
:1031E0008B50BFF34F8FBFF36F8FBD4602B080BDD2
:1031F00000E100E080B582B000AF78600A1CFB1CE3
:103200001A70FB1C1B7801229A407B685A60BD46ED
:1032100002B080BD80B582B000AF78600A1CFB1C94
:103220001A707B685A6AFB1C1B78DA40131C012257
:103230001340181CBD4602B080BDC04680B582B0A8
:1032400000AF78607B681A687B681B7B101C191CB8
:10325000FFF7D0FFBD4602B080BDC04680B582B04A
:1032600000AF78607B681A687B681B7B101C191C98
:10327000FFF7D0FF031C181CBD4602B080BDC0463E
:1032800080B582B000AF78600A1CFB1C1A707B68A6
:1032900019687B685B68FA1C127814329200D35864
:1032A000DB68081C191CFFF72BFABD4602B080BD75
:1032B00080B582B000AF78607B681B68181CFFF790
:1032C00035FABD4602B080BD80B582B000AF7860EF
:1032D0007B681B7E5BB2181CFFF754FFBD4602B033
:1032E00080BDC04680B582B000AF78607B681B7E31
:1032F0005BB2181CFFF760FFBD4602B080BDC04640
:1033000080B500AF024B181CFFF798FFBD4680BD8B
:10331000F4CF001080B500AF044B181CFFF79EFFE0
:10332000031CDBB2181CBD4680BDC046F4CF0010A4
:1033300080B500AF024B181CFFF780FFBD4680BD73
:1033400004D0001080B584B000AF021CFB1D1A70C1
:10335000BB1D0A1C1A70FFF7DDFF031E2BD0FB1DDF
:103360001B780A2B27D80C23FB18FA1D12781A7029
:103370000C23FB181B78802252421343DAB20C2331
:10338000FB181A700C23FB18BA1D12785A700B4BDD
:10339000181C0021FFF774FF08490C23FA180823B2
:1033A000FB18081C111C1A1C022301F0CDFA034B58
:1033B000181CFFF77DFFBD4604B080BDC00500208E
:1033C00090B583B000AF041C081C111CFB1D221C0F
:1033D0001A70BB1D021C1A707B1D0A1C1A707B1D03
:1033E0001B78002B01D100F0F1FAFB1D1B78012B9B
:1033F00005D103200121012200F0C4FC04E00320D8
:103400000121012200F0FCFCBB1D1B78002B16D013
:1034100000F05AFD032000F09FFC031C1A1C01233E
:103420001A40FB1D1B789A4209D0FB1D1B78054AE8
:10343000101C191C05F09EFF034B01221A70BD469B
:1034400003B090BD00C100102028002090B583B0CB
:1034500000AF041C081C111CFB1D221C1A70BB1D94
:10346000021C1A707B1D0A1C1A707B1D1B78002B16
:1034700001D100F0ABFAFB1D1B78012B05D1032015
:103480000821012200F07EFC04E003200821012233
:1034900000F0B6FCBB1D1B78002B16D000F014FD0D
:1034A000032000F059FC031C1A1C08231A40FB1DC2
:1034B0001B789A4209D0FB1D1B78054A101C191C69
:1034C00005F058FF034B01221A70BD4603B090BDB2
:1034D00024C100102028002080B582B000AF021C5B
:1034E000FB1D1A70FFF716FF031E2DD0FB1D1B7866
:1034F000002B02D1032000F0C5FC0320092101228A
:1035000000F040FC032000F0BDFC032000F024FC90
:10351000031C1A1C0823134006D1104B01221A70F9
:103520000F4B181C05F026FF032000F015FC031CB0
:103530001A1C012313400ED1084B01221A70094BAB
:10354000181C05F017FF06E0044B01221A70064B09
:10355000181C05F00FFFBD4602B080BD20280020DA
:103560008CC10010ACC100106CC1001080B582B0DD
:1035700000AF021CFB1D1A70FB1D1B78002B02D133
:10358000032000F07FFC03200921012200F038FC19
:10359000032000F077FC032000F0DEFB031C1A1C64
:1035A0000823134006D00C4B01221A700B4B181C39
:1035B00005F0E0FE032000F0CFFB031C1A1C0123E2
:1035C000134006D0044B01221A70054B181C05F05D
:1035D000D1FEBD4602B080BD20280020CCC1001025
:1035E000ECC1001080B500AFFFF794FE031E24D09D
:1035F0000420FF21FFF7A6FE032000F0ADFB031C13
:103600001A1C76231343DBB20320191CFFF79AFE22
:103610000B4B00221A7000F057FC002000F09CFBBE
:10362000031C1A1C074B1A70064B1B78DBB25BB2EB
:10363000002B02DA024B01221A70BD4680BDC04643
:103640002028002021280020B0B582B000AF051C42
:103650000C1C101C191CFB1D2A1C1A70BB1D221CE3
:103660001A707B1D021C1A703B1D0A1C1A707B1DF0
:103670001A783B1D1B781A41131CDAB22E4B1A70B4
:10368000FFF748FE031E4DD01823FB181B78002BB4
:1036900004D1BB1D1B78181C00F0F4FB264B1B78D3
:1036A000FA1D12789A4235D8BB1D1B78181C00F001
:1036B00053FB031C1A1C214B1A707B1D1B78DB4328
:1036C000D9B21E4B1B78DAB20B1C1340DBB2DAB254
:1036D0001A4B1A70FB1D1A783B1D1B789A40131C5D
:1036E000DAB2164B1B78DBB21343DBB2DAB2134B00
:1036F0001A70124B1A78BB1D1B78181C111CFFF78F
:1037000021FE0E4B1A78BB1D1B78181C111C00F0F3
:1037100007FB0EE00A4B01221A700A4B181C05F039
:1037200029FE06E0064B01221A70074B181C05F013
:1037300021FEBD4602B0B0BD222800202328002073
:10374000202800200CC200106CC10010B0B582B05F
:1037500000AF051C0C1C101C191CFB1D2A1C1A7028
:10376000BB1D221C1A707B1D021C1A703B1D0A1CFB
:103770001A70FFF7CFFD031E2BD03B1D1B78002BCB
:1037800004D1BB1D1B78181C00F07CFBFB1D1B78B3
:10379000002B09D1BB1D1A787B1D1B78101C191C2E
:1037A000012200F02DFB14E0FB1D1B78012B09D139
:1037B000BB1D1A787B1D1B78101C191C012200F000
:1037C000E1FA06E0044B01221A70044B181C05F0C4
:1037D000D1FDBD4602B0B0BD202800202CC2001093
:1037E00080B584B002AF021CFB1D1A70FB1D1A7855
:1037F00000230093101C072107220023FFF724FF5A
:10380000BD4602B080BDC04680B584B002AF021C88
:10381000FB1D1A70FB1D1A7800230093101C072152
:1038200018220323FFF710FFBD4602B080BDC0463B
:1038300080B584B002AF021CFB1D1A70FB1D1A7804
:1038400000230093101C08210C220223FFF7FCFE2A
:10385000BD4602B080BDC04680B584B002AF021C38
:10386000FB1D1A70FB1D1A7800230093101C082101
:1038700003220023FFF7E8FEBD4602B080BDC0462C
:1038800080B584B002AF021CFB1D1A70BB1D0A1C60
:103890001A70FB1D1B78082B09D0FB1D1A7800231A
:1038A0000093101C052107220023FFF7CDFEBB1D4E
:1038B0001B78082B09D0BB1D1A7800230093101C1D
:1038C000052170220423FFF7BFFEBD4602B080BD74
:1038D00080B584B002AF021CFB1D1A70BB1D0A1C10
:1038E0001A70FB1D1B78042B09D0FB1D1A780023CE
:1038F0000093101C06210C220223FFF7A5FEBB1D1E
:103900001B78042B09D0BB1D1A7800230093101CD0
:103910000621C0220623FFF797FEBD4602B080BDF8
:1039200080B584B002AF021CFB1D1A70BB1D0A1CBF
:103930001A70FB1D1B78042B09D0FB1D1A7800237D
:103940000093101C062103220023FFF77DFEBB1D00
:103950001B78042B09D0BB1D1A7800230093101C80
:10396000062130220423FFF76FFEBD4602B080BD62
:1039700080B582B000AF021CFB1D1A70FB1D1B78C6
:10398000181C032180220023FFF7E0FEBD4602B091
:1039900080BDC04680B500AFFFF7BCFC031E10D150
:1039A000FFF7C6FC084B181CFFF79CFCFFF7A8FCB0
:1039B0000A2005F0C7FCFFF715FE034B181CFFF7A4
:1039C00083FCBD4680BDC04640CF001080B500AF2F
:1039D00000F07AFABD4680BD80B500AF024B1B787F
:1039E000181CBD4680BDC0462028002080B500AF11
:1039F000024B00221A70BD4680BDC0462028002020
:103A000080B582B000AF021CBB1D1A807B1D0A1C52
:103A10001A707B1D1B78002B01D1FFF7D7FFBB1D50
:103A20001B88202B00D15DE00CDC042B39D004DC9A
:103A3000012B20D0022B29D096E0082B3CD0102B54
:103A400045D091E080225200934200D16BE0802269
:103A50005200934204DC402B4FD0802B58D083E09F
:103A600080229200934200D168E08022D2009342EB
:103A700000D16EE078E0002000F06EF9031C1A1C03
:103A80000223134001D001236FE06DE0002000F01D
:103A900063F9031C1A1C0123134001D0012364E0C5
:103AA00062E0002000F058F9031C1A1C04231340A4
:103AB00001D0012359E057E0002000F04DF9031C2C
:103AC0001A1C0823134001D001234EE04CE00120D2
:103AD00000F042F9031C1A1C0223134001D00123F9
:103AE00043E041E0012000F037F9031C1A1C0423D5
:103AF000134001D0012338E036E0012000F02CF91A
:103B0000031C1A1C1023134001D001232DE02BE0CD
:103B1000012000F021F9031C1A1C2023134001D0BE
:103B2000012322E020E0012000F016F9031C1A1CFA
:103B30004023134001D0012317E015E0012000F0DD
:103B40000BF9031CDBB25BB2002B01DA01230CE0A2
:103B50000AE0022000F000F9031C1A1C01231340A4
:103B600001D0012301E0C0460023181CBD4602B06D
:103B700080BDC04680B582B000AF78600A1CFB1CD7
:103B80001A707B685A6AFB1C1B78DA40131C0122EE
:103B90001340181CBD4602B080BDC04680B582B03F
:103BA00000AF78607B681A687B681B7B101C191C4F
:103BB000FFF7E0FF031C181CBD4602B080BDC046E5
:103BC00080B582B000AF78600A1CFB1C1A707B685D
:103BD00019687B685B68FA1C127814329200D3581B
:103BE000DB68081C191CFEF78BFDBD4602B080BDCA
:103BF00080B582B000AF78607B681B68181CFEF748
:103C000095FDBD4602B080BD80B500AF044B181CC9
:103C1000FFF7C4FF031CDBB2181CBD4680BDC046C5
:103C2000F4CF001080B584B000AF021C3960FB1DDA
:103C30001A703B6800221A70FFF7E6FF031E2AD0B5
:103C4000FB1D1B780A2B22D80C23FB18FA1D1278B7
:103C50001A700C23FB1800225A70104B181C0021FC
:103C6000FFF7AEFF0D490C23FA180823FB18081CB8
:103C7000111C1A1C022300F067FE084B181CFFF7EA
:103C8000B7FF0823FB185A783B681A7003E0044B0F
:103C9000181C05F06FFBBD4604B080BDC0050020B8
:103CA000A8CC001080B584B000AF021CFB1D1A70B8
:103CB000BB1D0A1C1A70FFF7A7FF031E2BD0FB1DAC
:103CC0001B780A2B27D80C23FB18FA1D12781A70C0
:103CD0000C23FB181B78802252421343DAB20C23C8
:103CE000FB181A700C23FB18BA1D12785A700B4B74
:103CF000181C0021FFF764FF08490C23FA18082359
:103D0000FB18081C111C1A1C022300F01DFE034B9B
:103D1000181CFFF76DFFBD4604B080BDC005002034
:103D200080B582B000AF021CFB1D1A70BB1D0A1CBF
:103D30001A70FB1D1B780A2B07D8FB1D1B78054A40
:103D4000B91D0978D154012300E00023181CBD4699
:103D500002B080BD2428002080B582B000AF021CD4
:103D6000FB1D1A70FB1D1B780A2B04D8FB1D1B784A
:103D7000034AD35C00E00023181CBD4602B080BD9E
:103D80002428002090B585B000AF041C081C111C2D
:103D9000FB1D221C1A70BB1D021C1A707B1D0A1C05
:103DA0001A70FFF731FF031E25D0FB1D1A780F2371
:103DB000FB1812498A5C1A700F23FB180F22B918DE
:103DC000BA1D097812780A431A70FB1D1A780F235E
:103DD000FB181B78101C191CFFF764FF7B1D1B7858
:103DE000002B08D0FB1D1A780F23FB181B78101C22
:103DF000191CFFF795FFBD4605B090BD2428002093
:103E000090B585B000AF041C081C111CFB1D221CC2
:103E10001A70BB1D021C1A707B1D0A1C1A70FFF75A
:103E2000F3FE031E29D0FB1D1A780F23FB1814493B
:103E30008A5C1A70BB1D1B78DB43D9B20F23FB18B9
:103E40001A780B1C1340DAB20F23FB181A70FB1DF3
:103E50001A780F23FB181B78101C191CFFF722FF80
:103E60007B1D1B78002B08D0FB1D1A780F23FB1835
:103E70001B78101C191CFFF753FFBD4605B090BD01
:103E80002428002080B584B000AF021CFB1D1A70EE
:103E9000FFF7BAFE031E13D0FB1D1B780A2B0FD8A9
:103EA000FB1D1A780F23FB18101C191CFFF7BAFE14
:103EB000FB1D1A780F23FB18101C191CFFF7B2FE0C
:103EC000BD4604B080BDC04680B582B000AFFFF7EC
:103ED0009BFE031E27D0FB1D00221A7016E0FB1D5F
:103EE0001A78BB1D101C191CFFF79CFEFB1D1B78CC
:103EF000002B06D0FB1D1B78013BBA1D11780B4A25
:103F0000D154FB1D1A78FB1D01321A70FB1D1B7862
:103F10000A2BE4D9BB1D0A20191CFFF783FEBB1D29
:103F20001A78024B9A72BD4602B080BD2428002048
:103F300080B582B000AF78600A1CFB1C1A70FB1CB5
:103F40001B7801229A407B68DA60BD4602B080BDD2
:103F500080B582B000AF78607B680122DA60BD4630
:103F600002B080BD80B582B000AF78607B6802226D
:103F70001A61BD4602B080BD80B582B000AF7860E6
:103F800039607B683A681A61BD4602B080BDC046A0
:103F900080B582B000AF78600A1CFB1C1A707B6889
:103FA000A4229A58FB1C1B78012199400B1C1A4330
:103FB0007B68A4215A50BD4602B080BD90B585B043
:103FC00000AF78600F23FB1800221A707B6826224E
:103FD0009B5C01225340DBB2002B0CD07B6821227A
:103FE0009B5C012B07D10F23FC187B68181C00F089
:103FF00009F8031C23700F23FB181B78181CBD46FF
:1040000005B090BD90B585B000AF78607B681B6946
:104010000F22BC18181C02F0D3FB031C23707B6812
:104020001B699A687B681B7E101C191CFFF780FFB8
:104030007B685A697B68DB69101C191CFDF734FE2C
:104040007B68181C00F030F87B6825229B5C002BF5
:104050000FD07B6859697B6820229B5C081C00217B
:104060001A1CFEF741F97B685B69181C0021FFF7F9
:104070008FFF7B685B69181CFFF774FF7B68262243
:10408000012199547B6824229B5C002B04D07B681F
:104090005B69181CFFF75CFF0F23FB181B78181CCB
:1040A000BD4605B090BDC04680B582B000AF786017
:1040B0007B685A697B685B8C101C191CFEF7EAF858
:1040C0007B685B69181C00210022FEF7F1F87B6811
:1040D0001B699A687B68DB68101C191CFFF74CFF92
:1040E000BD4602B080BDC046B0B582B000AF021C74
:1040F0003960FB1D1A70FB1D1B787F2B27D82D4CB8
:10410000FB1D1B785BB29B082A49FA1D127852B23C
:104110009208C03292005258F91D0978081C0321F8
:104120000140C900081CFF218140C94311403A6881
:104130009201FF200240F81D0078051C0320284052
:10414000C00082400A43C0339B001A512EE01A4C33
:10415000FB1D1B781A1C0F231340083B9908164AB5
:10416000FB1D1B78181C0F230340083B9B080633DC
:104170009B00D3185B68FA1D1278101C03220240C2
:10418000D200101CFF228240D2431A403B689B01A0
:10419000FF200340F81D0078051C03202840C000C4
:1041A00083401A438B1D9B00E3185A60BD4602B042
:1041B000B0BDC04600E100E000ED00E080B582B097
:1041C00000AF78607B68013B0C4A934201D9012320
:1041D00010E00B4B7A68013A5A6001235B42181CCD
:1041E0000321FFF781FF064B00229A60044B072250
:1041F0001A600023181CBD4602B080BDFFFFFF00FF
:1042000010E000E090B587B000AF78600F23FB1896
:1042100000221A706B497A68131CDB009B189B0004
:10422000CB1818331B68BB60674B1B68002B09D188
:104230007A68131CDB009B189B00624A9A18624B39
:104240001A60BCE0604B1B687B61BB683B61AAE005
:104250007B699B691A1C3B699B1A3B613B69002B7C
:1042600077DC7B695B68002B25D07B695A687968AD
:104270000B1CDB005B189B0052495B1813607B69C9
:10428000596850487A68131CDB009B189B00C318C0
:1042900059604C497A68131CDB009B189B007A69B3
:1042A0005A507A68131CDB009B189B00454A9A18E9
:1042B0007B695A601BE0444B186842497A68131CBA
:1042C000DB009B189B0058503F4B1A6879680B1C09
:1042D000DB005B189B003B495B1853607A68131C3A
:1042E000DB009B189B00374A9A18374B1A603549F8
:1042F0007A68131CDB009B189B005B589A693B692A
:10430000D11830487A68131CDB009B189B00C31837
:10431000183319602B497A68131CDB009B189B002B
:104320005A58284879680B1CDB005B189B001B5807
:104330009869244C79680B1CDB005B189B00E31820
:1043400018331B68C31A93610F23FB1801221A70DC
:1043500026E03B69002B23DD7B691B68002B1FD106
:1043600018497A68131CDB009B189B00CB187A69EC
:104370005A607A68131CDB009B189B00114A9A183C
:104380007B691A6039690F487A68131CDB009B1837
:104390009B00C318183319600F23FB1801221A70F1
:1043A0007B691B687B617B69002B08D00F23FB189E
:1043B0001B7801225340DBB2002B00D048E7BD46FA
:1043C00007B090BDA42B00204028002080B584B009
:1043D00000AF78607A68131CDB009B189B00284AAA
:1043E0009B18FB60FB685B68002B07D1FB681B68B0
:1043F000002B03D1234B00221A603DE0FB685B6871
:10440000002B14D1FB681A681E4B1A601D4B1B68E9
:1044100000225A601B4B1B681A4A12689169FA689D
:1044200092698A189A61FB6800221A6024E0FB688E
:104430001B68002B07D1FB685B6800221A60FB68D1
:1044400000225A6018E0FB685B68FA6812681A601C
:10445000FB681B68FA6852685A60FB681B68FA6858
:1044600012689169FA6892698A189A61FB68002259
:104470001A60FB6800225A60BD4604B080BDC04689
:10448000A42B00204028002080B582B000AF2F4B25
:104490001B687B6050E07B6820229B5C002B13D064
:1044A0007B685B69181CFFF791FF7B6800225A73D9
:1044B0007B685B691A1C01239340DA43244B1B6819
:1044C0001A40234B1A6034E07B681B7B002B12D10F
:1044D0007B685B7B012B2CD17B685B69181CFFF729
:1044E00075FF7B6802225A737B689A687B681B6938
:1044F000181C90471DE07B681B7B012B18D17B6843
:104500005B7B012B15D17B685B69181CFFF75EFF95
:104510007B68DA697B689A617B685B69181CFFF7C6
:1045200071FE7B689A687B681B69181C904700E0E5
:1045300009E0064B1B687B607B68002B03D07B681F
:104540009B69002BA7D0BD4602B080BD402800204B
:104550004428002080B582B000AF0E4B1B687B6002
:104560000D4B1B685A1C0C4B1A607B68002B0ED03D
:104570007B689B69012B05D97B689B695A1E7B6808
:104580009A6104E07B6800229A61FFF77DFFBD46D7
:1045900002B080BD402800204828002080B584B0AB
:1045A00000AF78600F23FB1800221A707B681B781D
:1045B00001225340DBB2002B20D0144B00221A60A2
:1045C000C8231B01181CFFF7F9FD021C0F23FB1861
:1045D0001A700F23FB181B78012B0FD001235B42AD
:1045E000181C0321FFF780FD094B00221A607B682D
:1045F00001221A700F23FB1800221A700F23FB18D8
:104600001B78181CBD4604B080BDC0464028002061
:104610004428002080B588B000AFF8607A603B6025
:104620000B23FB180A1C1A700023FB610023BB61DB
:1046300000237B61FB68632B02D80023FB617CE0D5
:104640000023BB6176E0BB6901229A403D4B1B68A9
:1046500013406CD1BB6901229A403A4B1B681A4344
:10466000384B1A603849BA69131CDB009B189B0051
:10467000CB181033BA695A603349BA69131CDB008E
:104680009B189B00CB1808330B22BA1812781A71AA
:104690002D49BA69131CDB009B189B00CB1808330B
:1046A00002225A71FB68181C6421FDF747FF031CA6
:1046B0007B617B69591C2448BA69131CDB009B1879
:1046C0009B00C318183319601F49BA69131CDB001B
:1046D0009B189B00CB1818337A695A601A49BA693B
:1046E000131CDB009B189B00CB1808337A681A60F8
:1046F0001549BA69131CDB009B189B00CB181033BB
:104700003A681A601049BA69131CDB009B189B00B9
:10471000CB1800225A600C49BA69131CDB009B18A5
:104720009B0000225A50BB690133FB6105E0BB6965
:104730000133BB61BB69032B85D9FB69181CBD46DE
:1047400008B080BD44280020A42B002080B584B090
:1047500000AF78600F23FB1801221A707B685A1E85
:104760001C49131CDB009B189B00CB1808335B799A
:10477000022B28D17B685A1E7B68591E15480B1CDA
:10478000DB005B189B00C31818335B68591C114889
:10479000131CDB009B189B00C318183319607B683F
:1047A0005A1E0C49131CDB009B189B00CB180833C6
:1047B00001225A717B68013B181CFFF723FD0F2370
:1047C000FB1800221A700F23FB181B78181CBD461B
:1047D00004B080BDA42B002080B500AF034B1B6844
:1047E00064225343181CBD4680BDC04648280020A3
:1047F00080B584B000AFF8607A600A23FB180A1C09
:104800001A800A23FB181988FB687A682032920004
:10481000D150BD4604B080BD80B582B000AF786095
:104820007B689B6BDBB27F229343DBB2181CBD46D7
:1048300002B080BD80B582B000AF78607B681A6D31
:10484000C023DB011340181CBD4602B080BDC0462A
:1048500080B584B000AFF8607A600A23FB180A1CA8
:104860001A800A23FB181988FB687A686032920064
:10487000D150BD4604B080BD80B582B000AF786035
:104880007A688C235B008021C901D150BD4602B0FB
:1048900080BDC04680B582B000AF78607A688A2358
:1048A0005B00D358082213405A1E9341DBB2181CF8
:1048B000BD4602B080BDC04680B582B000AF786012
:1048C00039607A688C235B003968D150BD4602B0EC
:1048D00080BDC04680B582B000AF78600A1CFB1C6A
:1048E0001A707B681B6CC02293431A1CFB1C1B783C
:1048F0009B01FF210B401A437B681A64BD4602B03E
:1049000080BDC04680B582B000AF786039607B68FA
:10491000DA6C3B681A437B68DA64BD4602B080BD3E
:1049200090B585B000AF78607B685B685B680F22EC
:10493000BC189847031C23700F23FB181B78181C06
:10494000BD4605B090BDC04690B587B000AFF860D9
:10495000B9607A603B601723FB1802221A70FB686B
:104960009B683B613B691B7FDBB2002B48D1BB6876
:10497000002B3FD07B68002B3CD03B68002B39D00C
:104980003B69DB7FDBB201225340DBB2002B30D02E
:104990003B6920229B5CDBB201225340DBB2002B3F
:1049A00027D03B690122DA773B697A685A613B6913
:1049B000BA689A613B693A685A603B6921220021D2
:1049C00099543B69222200219954FB685B68852237
:1049D0009B5C022B0DD11723FC18FA683B68101C56
:1049E000191C00F019F8031C23703B690022DA77C8
:1049F00005E004E01723FB1803221A7004E003E02B
:104A00001723FB1801221A701723FB181B78181C98
:104A1000BD4607B090BDC04690B587B000AF786086
:104A2000396001237B617B689B68FB601223FB1864
:104A300000221A80FB6800221A61FB6800229A603B
:104A40007B689B681B68082B01D902237B617B690B
:104A5000013B1A1C3B6893401A1CFB68DA607B68B8
:104A60001A68FB681B7FDBB2101C191CFFF732FFB2
:104A70007B685B687D229B5C002B00D1EDE07B684E
:104A80001B68181CFFF7F8FE7B681B68181C00F0F9
:104A9000F9F9FB6821229B5CDBB2002B0CD07B6810
:104AA0001A68FB681B7FDBB21C1CA64B101C191C70
:104AB000221CFFF7CDFE23E07B69022B09D1FB68A6
:104AC0009A69FB689B68D2181223FB1812881A8017
:104AD00008E0FB689A69FB689B68D3181A78122370
:104AE000FB181A807B681A68FB681B7FDBB21C1CF2
:104AF0001223FB181B88101C191C221CFFF7A8FE90
:104B0000FB689A687B69D218FB689A606DE0FB6865
:104B100021229B5CDBB2002B0CD07B681A68FB68FF
:104B20001B7FDBB21C1C874B101C191C221CFFF7BF
:104B30008FFE23E07B69022B09D1FB689A69FB6831
:104B40009B68D2181223FB1812881A8008E0FB68B1
:104B50009A69FB689B68D3181A781223FB181A808D
:104B60007B681A68FB681B7FDBB21C1C1223FB18D6
:104B70001B88101C191C221CFFF76AFEC0467B68AC
:104B80001B68181CFFF786FE031EF8D17B681B68A4
:104B90001222BC18181CFDF7DDFD031C2380FB68E6
:104BA0005A69FB681B69D3181222BA181288D2B24C
:104BB0001A707B69022B0CD1FB685A69FB681B6970
:104BC0000133D3181222BA181288120A92B2D2B242
:104BD0001A70FB681A697B69D218FB681A61FB6856
:104BE0009A687B69D218FB689A60FB689A68FB68D0
:104BF000DB689A428BD3C0467B681B68181CFFF7A2
:104C000049FE031EF8D17B681B681222BC18181CD1
:104C1000FDF7A0FD031C2380FB685A69FB681B6934
:104C2000D3181222BA181288D2B21A707B69022BDA
:104C30000CD1FB685A69FB681B690133D318122237
:104C4000BA181288120A92B2D2B21A707B681B6824
:104C5000181C0521FFF730FE06E17B681B68181C55
:104C600000F010F9C0467B681B68181CFFF7D4FDE4
:104C7000031E802BF7D0FB6821229B5CDBB2002B4C
:104C80000CD07B681A68FB681B7FDBB21C1C2D4BA9
:104C9000101C191C221CFFF7ABFD23E07B69022BC3
:104CA00009D1FB689A69FB689B68D2181223FB182C
:104CB00012881A8008E0FB689A69FB689B68D31821
:104CC0001A781223FB181A807B681A68FB681B7F0E
:104CD000DBB21C1C1223FB181B88101C191C221C85
:104CE000FFF786FDFB689A687B69D218FB689A60BB
:104CF00080E0C0467B681B68181CFFF78DFD031E13
:104D0000802BF7D0FB6821229B5CDBB2002B0CD000
:104D10007B681A68FB681B7FDBB21C1C094B101CEC
:104D2000191C221CFFF764FD25E07B69022B0BD1C7
:104D3000FB689A69FB689B68D2181223FB181288DB
:104D40001A800AE0FFFF0000FB689A69FB689B6815
:104D5000D3181A781223FB181A807B681A68FB682C
:104D60001B7FDBB21C1C1223FB181B88101C191C98
:104D7000221CFFF73DFDC0467B681B68181CFFF72F
:104D800059FD031EF8D07B681B681222BC18181C42
:104D9000FDF7E0FC031C2380FB685A69FB681B6974
:104DA000D3181222BA181288D2B21A707B69022B59
:104DB0000CD1FB685A69FB681B690133D3181222B6
:104DC000BA181288120A92B2D2B21A70FB681A6923
:104DD0007B69D218FB681A61FB689A687B69D218F4
:104DE000FB689A607B681A68C0231B02101C191CA0
:104DF000FFF788FDFB689A68FB68DB689A4200D27F
:104E000077E7C0467B681B68181CFFF713FD031E7D
:104E1000F8D07B681B681222BC18181CFDF79AFC9E
:104E2000031C2380FB685A69FB681B69D318122294
:104E3000BA181288D2B21A707B69022B0CD1FB68A7
:104E40005A69FB681B690133D3181222BA181288F9
:104E5000120A92B2D2B21A707B681A68C0231B027F
:104E6000101C191CFFF74EFDFB680022DA60FB687E
:104E700000221A61FB6800229A600023181CBD46BC
:104E800007B090BD80B582B000AF78607B68181C19
:104E9000FDF760FC7B68181CFDF75CFCBD4602B0AA
:104EA00080BDC04680B582B000AF7860081C111C80
:104EB000FB1C021C1A70BB1C0A1C1A70FB1C187805
:104EC000FB1C1B787A6806339B00D3185B680722AB
:104ED00093431A1CBB1C1B781A437968831D9B00E3
:104EE000CB185A60BD4602B080BDC04680B582B0C6
:104EF00000AF78600A1CFB1C1A707B685B6B064A6B
:104F00001A40FB1C1B78013B1B061A437B685A6343
:104F1000BD4602B080BDC046FFFFFFF080B582B045
:104F200000AF78600A1CFB1C1A707B685B6B064A3A
:104F30001A40FB1C1B78013B1B041A437B685A6315
:104F4000BD4602B080BDC046FFFFC0FF80B584B043
:104F500000AFF860B9607A60FB685B69054A1A4087
:104F6000BB681A437B681A43FB685A61BD4604B0AC
:104F700080BDC046FFFFFF2F80B582B000AF7860D4
:104F80000A1CFB1C1A707B681B6C0F2293431A1CB3
:104F9000FB1C1B781A437B681A64BD4602B080BDB7
:104FA00080B582B000AF786039607A683B68101CC9
:104FB000191C0122FDF75AFBBD4602B080BDC04658
:104FC00080B582B000AF78607B68181C0121FFF7C4
:104FD000D3FFBD4602B080BD80B582B000AF78601F
:104FE0007B685B6B01221A437B685A63BD4602B043
:104FF00080BDC04680B582B000AF786039607B6804
:105000005B69074A1A403B68013B9B0213438022BD
:1050100052001A437B685A61BD4602B080BDC0464B
:10502000FF80FFFF80B584B000AFF860B9607A60A0
:10503000F968BA687B68081C111C1A1CFFF786FF08
:10504000BD4604B080BDC04680B582B000AF786078
:105050000A1CFB1C1A707A68FB1C1B78101C191C9C
:10506000FFF744FFBD4602B080BDC04680B582B0A8
:1050700000AF78600A1CFB1C1A707A68FB1C1B7856
:10508000101C191CFFF74AFFBD4602B080BDC04688
:1050900080B582B000AF7860081C111CFB1C021C9C
:1050A0001A70BB1C0A1C1A70FB1C1878FB1C1B789E
:1050B0007A6806339B00D3185B6850229343102212
:1050C0001A437968831D9B00CB185A607968FB1CD2
:1050D0001A78BB1C1B78081C111C1A1CFFF7E2FE77
:1050E000BD4602B080BDC04680B582B000AFFB1D9A
:1050F00000221A703B4A3C4B101C191CFFF750FF52
:10510000384B181CFFF768FF364B181C0821FFF7B7
:105110009BFF344B181C4021FFF7A8FF314B181C94
:1051200000210022FFF77EFF2E4B181C0121FFF704
:1051300061FF2E4A2E4B101C07211A1CFBF7F2FFB1
:10514000284B181C00210322FFF7A2FF254B181C37
:1051500003210022FFF79CFF224B181C0421002290
:10516000FFF796FF1F4B181C05210022FFF790FF49
:105170001C4B181CFFF724FF1C4A1E4B101C062159
:105180001A1CFBF7CFFF194A1B4B101C08211A1CD5
:10519000FBF7C8FF154A194B101C09211A1CFBF715
:1051A000C1FF104A80235B02101C191CFDF7A8FAEE
:1051B0000C4B181C10210022FDF774FC094B181C25
:1051C000102104220123FDF70DFC064B181C0021C1
:1051D00004220F23FDF734FCFB1D1B78181CBD4671
:1051E00002B080BD0002004890050020000004408D
:1051F000800500207005002058CD001070CD0010F3
:1052000080B582B000AF78600A1CFB1C1A70FB1CD2
:105210001B7801229A407B68DA60BD4602B080BDEF
:1052200080B582B000AF786039607B685A693B68AE
:105230005B041A437B685A61BD4602B080BDC0461C
:1052400080B582B000AF78607B680122DA60BD462D
:1052500002B080BD80B582B000AF786039607B68F5
:105260003A681A61BD4602B080BDC04680B582B0C2
:1052700000AF78600A1CFB1C1A707B68A4229A5845
:10528000FB1C1B78012199400B1C1A437B68A4214D
:105290005A50BD4602B080BD80B582B000AF786084
:1052A0000A1CFB1C1A707B68B4229B58062293438D
:1052B0001A1CFB1C1B785B00191C06230B401A43AD
:1052C0007B68B4215A50BD4602B080BD90B587B00E
:1052D00000AF78601723FB1801221A701623FB1801
:1052E00001221A707B681B7F002B00D0AFE07B6827
:1052F0001B688C229B581622BC18181C01F060FAFF
:10530000031C23701623FB181B78002B00D09AE097
:105310007B689A687B681B689B6C101C191CFCF7E7
:10532000C3FC7B689A687B681B685B88101C191C2F
:10533000FCF7B0FF7B689A687B681B689B88101C31
:1053400000211A1CFCF7B4FF7B689A687B681B6815
:10535000DB88101C01211A1CFCF7AAFF7B681B6864
:105360009B6CDB7802221340DBB2002B08D17B68F8
:105370001B689B6CDB7804221340DBB2002B08D047
:105380007B685A687B681B68DB6B101C191CFCF778
:10539000C5FC7B6899687B681B6844229B5C081C81
:1053A000191CFFF779FF7B685A687B681B69101C22
:1053B000191CFFF74FFF7B685A687B685B69101CFC
:1053C000191CFFF747FF7B689A687B681B681B6C9A
:1053D000101C191CFCF7E0FF7B68181C00F062F938
:1053E0007B68181C00F03EF87B68181C00F0FEF883
:1053F0007B681B688C229B581B683B617B681B6821
:105400009B6C1B7B1B071B0FDBB2FB60FB683A69C5
:10541000DA40131C3B617B683A691A627B6801229F
:105420001A771723FB1800221A707B681B681B78F9
:10543000002B10D01723FC187B68181C00F01EFAF4
:10544000031C237007E07B6800221A7703E0172310
:10545000FB1802221A701723FB181B78181CBD4674
:1054600007B090BD80B582B000AF78607B689A6865
:105470007B681B685B7C101C00211A1CFCF734FF46
:105480007B689A687B681B689B7C101C02211A1C35
:10549000FCF72AFF7B689A687B681B68DB7C101C22
:1054A00003211A1CFCF720FF7B689A687B681B6845
:1054B0001B7D101C04211A1CFCF716FF7B689A68E0
:1054C0007B681B685B7D101C05211A1CFCF70CFF18
:1054D0007B689A687B681B689B7D101C01211A1CE5
:1054E000FCF702FF7B689A687B681B68DB7D101CF9
:1054F00008211A1CFCF7F8FE7B689A687B681B6819
:105500001B7E101C09211A1CFCF7EEFE7B689A68B2
:105510007B681B685B7E101C0A211A1CFCF7E4FEEA
:105520007B681B681B7A002B05D07B689B68181C66
:105530000021FFF79BFE7B681B685B7A002B05D080
:105540007B689B68181C0221FFF790FE7B681B6834
:105550009B7A002B05D07B689B68181C0321FFF702
:1055600085FE7B681B68DB7A002B05D07B689B6817
:10557000181C0421FFF77AFE7B681B681B7B002B3D
:1055800005D07B689B68181C0521FFF76FFE7B68C0
:105590001B685B7B002B05D07B689B68181C012176
:1055A000FFF764FE7B681B689B7B002B05D07B6844
:1055B0009B68181C0821FFF759FE7B681B68DB7B82
:1055C000002B05D07B689B68181C0921FFF74EFE55
:1055D0007B681B681B7C002B05D07B689B68181CB4
:1055E0000A21FFF743FEBD4602B080BD80B582B000
:1055F00000AF78607B681B684C229B5C002B0ED050
:105600007B681B68196D7B681B6854229A5C7B68F9
:105610001B689B6D081C111C1A1CFBF783FD7B6823
:105620001B685C229B5C002B0ED07B681B68196E8C
:105630007B681B6864229A5C7B681B689B6E081CF5
:10564000111C1A1CFBF76EFD7B681B686C229B5CAF
:10565000002B0ED07B681B68196F7B681B68742257
:105660009A5C7B681B689B6F081C111C1A1CFBF75B
:1056700059FD7B681B687C229B5C002B0ED07B68ED
:105680001B68802298587B681B688422995C7B6821
:105690001B6888229B581A1CFBF744FDBD4602B0CC
:1056A00080BDC04690B585B002AF78607B689A68CF
:1056B0007B681B68DB69101C01211A1CFCF75CFD70
:1056C0007B689A687B681B681B6A101C02211A1C85
:1056D000FCF752FD7B689A687B681B685B6A101C4C
:1056E00003211A1CFCF748FD7B681B6828229B5C81
:1056F000002B0CD07B6898687B681B682822995C1B
:105700007B681B6829229B5C1A1CFCF721FB7B68C9
:105710001B682A229B5C002B0CD07B6898687B68F6
:105720001B682A22995C7B681B682B229B5C1A1CD5
:10573000FCF742FB7B681B682C229B5C002B09D08A
:105740007B6899687B681B682C229B5C081C191C71
:10575000FCF72AFC7B681B682D229B5C002B09D080
:105760007B6899687B681B682D229B5C081C191C50
:10577000FCF7FEFB7B681B682E229B5C002B09D08C
:105780007B6899687B681B682E229B5C081C191C2F
:10579000FCF7D2FB7B681B682F229B5C002B13D08D
:1057A0007B6899687B681B682F229B5C081C191C0E
:1057B000FCF734FB7B6899687B681B6830229B5C34
:1057C000081C191CFCF746FB7B681B6831229B5C9C
:1057D000002B12D07B6898687B681B683122995C2B
:1057E0007B681B6832229C5C7B681B6833229B5C55
:1057F0000093221C0323FCF747FB7B681B683722BE
:105800009B5C032B18D17B6898687B681B683922E6
:10581000995C7B681B6838229B5C1A1CFCF7F8FBC0
:105820007B681B6836229B5C002B05D07B689B68DD
:10583000181C0F21FFF7F4FC7B681B6834229B5C6B
:10584000002B05D17B681B6835229B5C002B11D097
:105850007B6899687B681B681A6A7B681B685B6A4F
:10586000081C111C1A1CFCF719FC7B689B68181C8F
:10587000FCF7B6FBBD4603B090BDC04680B584B012
:1058800000AF78600F23FB1801221A707B681B7F22
:10589000012B03D07B681B7F032B19D17B685A68CF
:1058A0007B685B7B101C191CFFF7AAFC7B681B68DC
:1058B00028229B5C002B04D17B689B68181CFFF797
:1058C000BFFC7B6802221A770F23FB1800221A7094
:1058D0000F23FB181B78181CBD4604B080BDC046C2
:1058E00080B582B000AF78600A1CFB1C1A70FB1CEC
:1058F0001B7801229A407B68DA60BD4602B080BD09
:1059000080B582B000AF78607B685B6980229202CC
:105910001A437B685A61BD4602B080BD80B582B033
:1059200000AF78607B680122DA60BD4602B080BDBE
:1059300080B582B000AF78607B6801221A61BD46F5
:1059400002B080BD80B582B000AF78607B68022273
:105950001A61BD4602B080BD80B582B000AF7860EC
:105960000A1CBB1C1A80BB1C1A887B685A63BD4684
:1059700002B080BD80B582B000AF78600A1CBB1C4D
:105980001A80BB1C1A887B68DA63BD4602B080BDF2
:1059900080B582B000AF786039607B683A681A6180
:1059A000BD4602B080BDC04680B582B000AF786011
:1059B0000A1CFB1C1A707B68A4229A58FB1C1B78DB
:1059C000012199400B1C1A437B68A4215A50BD4603
:1059D00002B080BD90B587B000AF78601723FB1888
:1059E00001221A701623FB1801221A707B681B7F94
:1059F000002B00D097E07B681B68DB6C1622BC187C
:105A0000181C00F009FF031C23701623FB181B78D9
:105A1000002B00D083E07B689A687B681B689B6BD7
:105A2000101C191CFBF7C6FD7B689A687B681B6815
:105A30005B88101C191CFFF78FFF7B689A687B68D6
:105A40001B689B88101C191CFFF794FF7B681B6860
:105A50009B6BDB7802221340DBB2002B08D07B6803
:105A60005A687B681B685B6B101C191CFBF788FD70
:105A70007B685A687B681B69101C191CFFF788FF3C
:105A80007B685A687B685B69101C191CFFF780FFF4
:105A90007B68181C00F0ECF87B68181C00F04EF8CE
:105AA0007B681B683C229B5C002B0ED07B681B68CC
:105AB000196C7B681B6844229A5C7B681B689B6C32
:105AC000081C111C1A1CFBF72DFB7B681B68DB6C88
:105AD0001B683B617B681B689B6B1B791B071B0F5B
:105AE000DBB2FB60FB683A69DA40131C3B617B6800
:105AF0003A691A627B6801221A771723FB18002281
:105B00001A707B681B681B78002B10D01723FC18B9
:105B10007B68181C00F08AF9031C237007E07B687F
:105B200000221A7703E01723FB1802221A701723AA
:105B3000FB181B78181CBD4607B090BD80B582B01D
:105B400000AF78607B681B689B79002B0FD07B6867
:105B50009A687B681B685B7B101C00211A1CFBF792
:105B6000F9FF7B689B68181C0021FFF71DFF7B680D
:105B70001B68DB79002B0FD07B689A687B681B68F9
:105B80009B7B101C02211A1CFBF7E4FF7B689B68BF
:105B9000181C0221FFF708FF7B681B681B7A002B8B
:105BA0000FD07B689A687B681B68DB7B101C032125
:105BB0001A1CFBF7CFFF7B689B68181C0321FFF7BB
:105BC000F3FE7B681B685B7A002B0FD07B689A68BA
:105BD0007B681B681B7C101C01211A1CFBF7BAFF99
:105BE0007B689B68181C0121FFF7DEFE7B681B6841
:105BF0009B7A002B0FD07B689A687B681B685B7C64
:105C0000101C08211A1CFBF7A5FF7B689B68181C59
:105C10000821FFF7C9FE7B681B68DB7A002B0FD0D9
:105C20007B689A687B681B689B7C101C09211A1C86
:105C3000FBF790FF7B689B68181C0921FFF7B4FEF7
:105C40007B681B681B7B002B0FD07B689A687B6886
:105C50001B68DB7C101C0A211A1CFBF77BFF7B688E
:105C60009B68181C0A21FFF79FFEBD4602B080BD4D
:105C700090B583B000AF78607B689A687B681B68DA
:105C80005B69101C01211A1CFBF7B6FE7B689A6841
:105C90007B681B689B69101C02211A1CFBF7ACFE79
:105CA0007B689A687B681B68DB69101C03211A1CDF
:105CB000FBF7A2FE7B681B6820229B5C002B0CD0AC
:105CC0007B6898687B681B682022995C7B681B68EE
:105CD00021229B5C1A1CFBF7A1FC7B681B6822221B
:105CE0009B5C002B0CD07B6898687B681B68222229
:105CF000995C7B681B6823229B5C1A1CFBF7C2FC27
:105D00007B681B6824229B5C002B09D07B68996808
:105D10007B681B6824229B5C081C191CFBF784FD14
:105D20007B681B6825229B5C002B09D07B689968E7
:105D30007B681B6825229B5C081C191CFBF758FD1F
:105D40007B681B6826229B5C002B09D07B689968C6
:105D50007B681B6826229B5C081C191CFBF72CFD2A
:105D60007B681B6827229B5C002B09D07B689968A5
:105D70007B681B6827229B5C081C191CFBF7B4FC82
:105D80007B681B6828229B5C002B10D07B6898687E
:105D90007B681B682822995C7B681B6829229C5CB5
:105DA0007B681B682A229B5C221CFBF7B9FC7B6882
:105DB0001B682E229B5C032B17D17B6898687B683D
:105DC0001B683022995C7B681B682F229B5C1A1C25
:105DD000FBF75EFD7B681B682D229B5C002B04D0CB
:105DE0007B689B68181CFFF78BFD7B681B682B2268
:105DF0009B5C022B17D17B681B682C229B5C032BBE
:105E000011D17B6899687B681B689A697B681B68FD
:105E1000DB69081C111C1A1CFBF780FD7B689B6862
:105E2000181CFBF71DFDBD4603B090BD80B584B0C6
:105E300000AF78600F23FB1801221A707B681B7F6C
:105E4000012B03D07B681B7F032B19D17B685A6819
:105E50007B685B7B101C191CFFF742FD7B681B688D
:105E600020229B5C002B04D17B689B68181CFFF7E9
:105E700055FD7B6802221A770F23FB1800221A7047
:105E80000F23FB181B78181CBD4604B080BDC0460C
:105E900080B584B000AF78600F23FB1801221A7020
:105EA0007B681B7F002B10D07B689B68181CFFF75A
:105EB0003FFD7B689B68181CFFF744FD7B6803224D
:105EC0001A770F23FB1800221A700F23FB181B7878
:105ED000181CBD4604B080BD80B582B000AF7860AC
:105EE0000A1CFB1C1A70FB1C1B7801229A407B6861
:105EF000DA60BD4602B080BD80B582B000AF786088
:105F00000A1CFB1C1A70FB1C1B7801229A407B6840
:105F10009A60BD4602B080BD80B582B000AF7860A7
:105F20007B680122DA60BD4602B080BD80B582B0D8
:105F300000AF78607B6801221A61BD4602B080BD67
:105F400080B582B000AF78607B6802221A61BD46DE
:105F500002B080BD80B582B000AF78600A1CBB1C67
:105F60001A80BB1C1A887B685A63BD4602B080BD8C
:105F700080B582B000AF78600A1CBB1C1A80BB1CC5
:105F80001A887B68DA63BD4602B080BD80B582B0F6
:105F900000AF786039607B683A681A61BD4602B02C
:105FA00080BDC04680B582B000AF78600A1CFB1C83
:105FB0001A707B68A4229A58FB1C1B780121994017
:105FC0000B1C1A437B68A4215A50BD4602B080BD09
:105FD00080B582B000AF78600A1CFB1C1A70FB1CF5
:105FE0001B7801229A407B68B0215A50BD4602B00E
:105FF00080BDC04690B585B000AF78600F23FB1818
:1060000001221A707B6829229B5C022B55D17B6888
:106010001B680F22BC18181C00F0FEFB031C237029
:106020000F23FB181B78002B43D17B689A687B6891
:10603000DB68101C191CFBF7BDFA7B689A687B684B
:10604000DB699BB2101C191CFFF784FF7B689A6800
:106050007B689B699BB2101C191CFFF789FF7B684A
:106060005A687B685B6A101C191CFFF78FFF7B68FE
:10607000181C00F029F87B6819697B682C229A5C4F
:106080007B685B69081C111C1A1CFBF74BF87B68CA
:106090002922002199547B682F229B5C002B03D07E
:1060A0007B68181C00F07CF90F23FB1800221A7083
:1060B00003E07B682922022199540F23FB181B78E7
:1060C000181CBD4605B090BD80B582B000AF7860A9
:1060D0007B6830229B5C002B0FD07B689B68181C70
:1060E0000021FFF75FFF7B6899687B682A229B5C31
:1060F000081C00211A1CFBF72DFD7B6831229B5CDC
:10610000002B0FD07B689B68181C0221FFF74AFF09
:106110007B6899687B682B229B5C081C02211A1CF7
:10612000FBF718FDBD4602B080BDC04680B582B009
:1061300000AF78607B6829229B5C002B04D07B68D1
:1061400029229B5C042B11D17B6859687B682E2225
:106150009B5C081C191CFFF7BFFE7B689B68181C22
:10616000FFF7DAFE7B68292203219954BD4602B06D
:1061700080BDC04680B582B000AF78607B682922C0
:106180009B5C022B16D07B689B68181CFFF7CEFE29
:106190007B689B68181CFFF7D3FE7B6859687B6897
:1061A0002E229B5C081C191CFFF7A6FE7B68292287
:1061B00004219954BD4602B080BDC04680B586B06A
:1061C00000AF786039601723FB1801221A707B68D2
:1061D00029229B5C022B2CD03B68194A934228D879
:1061E0007B68DB6901333B613B68154AD31A3A6926
:1061F0005343181C1249FCF7A1F9031CFB607B6890
:10620000FA689A617B683A681A627B689A68FB68E8
:106210009BB2101C191CFFF7ABFE7B685A687B68A9
:106220005B6A101C191CFFF7B1FE1723FB18002234
:106230001A701723FB181B78181CBD4606B080BDCA
:106240001027000080B586B000AF78603960172352
:10625000FB187A682921525C1A701623FB18002259
:106260001A7000233B611723FB181B78022B6CD09C
:106270003B68002B69D01723FB1800221A707B683B
:106280001B681B68FB6017E0F8683968FCF756F973
:10629000031C1A1C1623FB181B78DA40131C3B61E5
:1062A0003B692F4A934200D80BE01623FB181A785B
:1062B0001623FB1801321A701623FB181B780F2BBC
:1062C000E2D91623FB181B780F2B02D83B69002B51
:1062D00004D11723FB1801221A703AE07B681B6A6D
:1062E000204AD31A3A695343181C1E49FCF726F971
:1062F000031CBB607B689A681623FB181B78101C74
:10630000191CFBF707FC3B69013B3B617B689A6802
:106310003B699BB2101C191CFFF71CFE7B689A6836
:10632000BB689BB2101C191CFFF722FE7B685A68E1
:106330007B685B6A101C191CFFF728FE7B68BA6833
:106340009A617B683A69DA6103E01723FB1801223E
:106350001A701723FB181B78181CBD4606B080BDA9
:10636000FFFF00001027000090B585B000AF7860F7
:106370000F23FB1801221A707B6828229B5C002BDC
:1063800007D10F23FC187B68181CFFF733FE031C92
:1063900023700F23FB181B78181CBD4605B090BD59
:1063A00080B582B000AF78607B6828229B5C002BB0
:1063B00003D17B68181CFFF7B9FEBD4602B080BD53
:1063C00080B582B000AF78607B6828229B5C002B90
:1063D00003D17B68181CFFF7CDFEBD4602B080BD1F
:1063E00090B585B000AF786039600F23FB180122AB
:1063F0001A707B6828229B5C002B09D10F23FC18A4
:106400007A683B68101C191CFFF7D8FE031C237028
:106410000F23FB181B78181CBD4605B090BDC04665
:1064200090B585B000AF786039600F23FB1801226A
:106430001A707B6828229B5C002B09D10F23FC1863
:106440007A683B68101C191CFFF7FCFE031C2370C4
:106450000F23FB181B78181CBD4605B090BDC04625
:1064600080B582B000AF78600A1CFB1C1A707B6894
:1064700028229B5C002B07D17B689A68FB1C1B7849
:10648000101C191CFFF7A4FDBD4602B080BDC0461C
:1064900080B582B000AF021CFB1D1A70FB1D1B787B
:1064A0007F2B09D8064BFA1D1278111C1F220A40B7
:1064B000012191400A1C1A60BD4602B080BDC04651
:1064C00000E100E080B582B000AF021CFB1D1A7035
:1064D000FB1D1B787F2B0AD80649FB1D1B781A1C55
:1064E0001F23134001229A40C0235B00CA50BD46BF
:1064F00002B080BD00E100E0B0B582B000AF021C88
:106500003960FB1D1A70FB1D1B787F2B27D82D4C83
:10651000FB1D1B785BB29B082A49FA1D127852B208
:106520009208C03292005258F91D0978081C0321C4
:106530000140C900081CFF218140C94311403A684D
:106540009201FF200240F81D0078051C032028401E
:10655000C00082400A43C0339B001A512EE01A4CFF
:10656000FB1D1B781A1C0F231340083B9908164A81
:10657000FB1D1B78181C0F230340083B9B080633A8
:106580009B00D3185B68FA1D1278101C032202408E
:10659000D200101CFF228240D2431A403B689B016C
:1065A000FF200340F81D0078051C03202840C00090
:1065B00083401A438B1D9B00E3185A60BD4602B00E
:1065C000B0BDC04600E100E000ED00E080B582B063
:1065D00000AF78607B6859687B681A7F7B680833F6
:1065E000081C111C1A1CFAF79DFD7B6819687B6852
:1065F0009A7E7B681033081C111C1A1CFBF7E0FE06
:106600007B681A687B68DB7E101C191C0122FBF773
:1066100005FF7B681A7E7B685B7E191C53B2181CD1
:10662000FFF76AFF7B685B7F002B0BD07B681B7ECC
:106630005BB2181CFFF746FF7B681B7E5BB2181C21
:10664000FFF726FF0023181CBD4602B080BDC046E0
:1066500080B582B000AF021CFB1D1A70FB1D1B78B9
:106660007F2B09D8064BFA1D1278111C1F220A40F5
:10667000012191400A1C1A60BD4602B080BDC0468F
:1066800000E100E0B0B582B000AF021C3960FB1D34
:106690001A70FB1D1B787F2B27D82D4CFB1D1B78F8
:1066A0005BB29B082A49FA1D127852B29208C03296
:1066B00092005258F91D0978081C03210140C900B5
:1066C000081CFF218140C94311403A689201FF2014
:1066D0000240F81D0078051C03202840C0008240BD
:1066E0000A43C0339B001A512EE01A4CFB1D1B7845
:1066F0001A1C0F231340083B9908164AFB1D1B78F0
:10670000181C0F230340083B9B0806339B00D3183B
:106710005B68FA1D1278101C03220240D200101C84
:10672000FF228240D2431A403B689B01FF20034076
:10673000F81D0078051C03202840C00083401A4340
:106740008B1D9B00E3185A60BD4602B0B0BDC04629
:1067500000E100E000ED00E080B582B000AF7860BD
:106760007B681B785BB2181CFFF772FFBD4602B056
:1067700080BDC04680B582B000AF78607B681A7873
:106780007B685B78191C53B2181CFFF77BFF7B6892
:106790009B78002B03D07B68181CFFF7DDFF0023DC
:1067A000181CBD4602B080BD80B582B000AF7860D5
:1067B0007B6880225200DA60BD4602B080BDC046D0
:1067C00080B582B000AF78607B685B7B012253406C
:1067D000DBB2002B0FD07B689A687B681B7B101C98
:1067E000191CFBF73DFA7B689B68181CFFF7DCFF60
:1067F0007B6801225A730023181CBD4602B080BD7D
:1068000080B582B000AF78607B6880225200DA6089
:10681000BD4602B080BDC04680B582B000AF786092
:106820007B685B7B01225340DBB2002B0FD07B687F
:106830009A687B681B7B101C191CFAF77DFE7B682D
:106840009B68181CFFF7DCFF7B6801225A7300234A
:10685000181CBD4602B080BD80B582B000AF786024
:1068600039607B6880229A583B681033191C0123D9
:106870008B401A437B6880215A50BD4602B080BDD0
:1068800080B582B000AF78600A1CBB1C1A807B68A0
:106890001B6C064A1A40BB1C1B8813438022120241
:1068A0001A437B681A64BD4602B080BDFFF3FFFF48
:1068B00080B582B000AF78600A1CFB1C1A707B6840
:1068C0001B6C0A4A1340802212021A437B681A6426
:1068D0007B681A6CFB1C1B781343802212021A433C
:1068E0007B681A64BD4602B080BDC046F07FFFFFE2
:1068F00080B584B000AF78607B681B7E022B5ED1D0
:106900007B68DA687B689B68101C191CFCF776F9B9
:106910000023FB6038E07B68FA689200D35819685E
:106920007B68FA689200D3585B68081C191CFCF756
:1069300027FA7B68FA689200D3581B68181C032159
:10694000FCF7C6FA7B68FA689200D3581B7A0122DA
:106950005340DBB2002B06D07B68DA68FB68101C62
:10696000191CFFF779FF7B681A69FB68DBB2101C02
:10697000191CFCF7C9FA7B68FA689200D358002208
:106980005A72FB680133FB60FB68012BC3D97B683B
:106990001B69181C0021FFF78BFF7B681B69181C03
:1069A0000021FFF76DFF7B685B7E002B04D07B68C6
:1069B000DB68181CFCF774F97B6800221A767B6888
:1069C0001B7E181CBD4604B080BDC04680B582B099
:1069D00000AF78607B6819687B681A7B7B6804333A
:1069E000081C111C1A1CFAF79DFB7B6819687B6850
:1069F0001A7B7B685B7B081C111C1A1CFBF778FD5B
:106A00000023181CBD4602B080BDC04680B500AF53
:106A1000BD4680BD80B584B000AF78600F23FB1801
:106A200000221A700E23FB1800221A700D23FB1887
:106A300000221A700C23FB1800221A700B23FB187B
:106A400000221A707B681B7801225340DBB2002BB6
:106A50001BD00E23FA180D23FB1812781B78134352
:106A6000DAB20C23FB181B781343D9B20F23FB189F
:106A70000B22BA1812780A431A700F23FB181B78DE
:106A8000002B02D17B6801221A700F23FB181B78A0
:106A9000181CBD4604B080BD90B585B000AF3B1D4D
:106AA000044A13CA13C33B1D181CFAF713FCBD4656
:106AB00005B090BD44D0001080B582B000AF021C7C
:106AC000FB1D1A70FB1D1B787F2B09D8064BFA1D86
:106AD0001278111C1F220A40012191400A1C1A60E1
